{
	"_format": "hh-sol-artifact-1",
	"contractName": "NftFungabler",
	"sourceName": "contracts/NftFungabler.sol",
	"abi": [
		{
			"anonymous": false,
			"inputs": [
				{
					"indexed": false,
					"internalType": "string",
					"name": "func",
					"type": "string"
				},
				{
					"indexed": false,
					"internalType": "address",
					"name": "sender",
					"type": "address"
				},
				{
					"indexed": false,
					"internalType": "uint256",
					"name": "value",
					"type": "uint256"
				},
				{
					"indexed": false,
					"internalType": "bytes",
					"name": "data",
					"type": "bytes"
				}
			],
			"name": "Log",
			"type": "event"
		},
		{
			"anonymous": false,
			"inputs": [
				{
					"indexed": false,
					"internalType": "address",
					"name": "nftAddress",
					"type": "address"
				},
				{
					"indexed": false,
					"internalType": "uint256",
					"name": "nftTokenId",
					"type": "uint256"
				},
				{
					"indexed": false,
					"internalType": "address",
					"name": "erc20Address",
					"type": "address"
				},
				{
					"indexed": false,
					"internalType": "address",
					"name": "caller",
					"type": "address"
				},
				{
					"indexed": false,
					"internalType": "uint256",
					"name": "timestamp",
					"type": "uint256"
				}
			],
			"name": "NftLockup",
			"type": "event"
		},
		{
			"anonymous": false,
			"inputs": [
				{
					"indexed": false,
					"internalType": "address",
					"name": "nftAddress",
					"type": "address"
				},
				{
					"indexed": false,
					"internalType": "uint256",
					"name": "nftTokenId",
					"type": "uint256"
				},
				{
					"indexed": false,
					"internalType": "address",
					"name": "erc20Address",
					"type": "address"
				},
				{
					"indexed": false,
					"internalType": "address",
					"name": "caller",
					"type": "address"
				},
				{
					"indexed": false,
					"internalType": "uint256",
					"name": "timestamp",
					"type": "uint256"
				}
			],
			"name": "NftUnlock",
			"type": "event"
		},
		{
			"stateMutability": "payable",
			"type": "fallback"
		},
		{
			"inputs": [
				{
					"internalType": "address",
					"name": "_nftContractAddress",
					"type": "address"
				},
				{
					"internalType": "uint256",
					"name": "_nftTokenId",
					"type": "uint256"
				}
			],
			"name": "getErc20OfErc721",
			"outputs": [
				{
					"internalType": "address",
					"name": "erc20Address",
					"type": "address"
				}
			],
			"stateMutability": "view",
			"type": "function"
		},
		{
			"inputs": [
				{
					"internalType": "address",
					"name": "_nftContractAddress",
					"type": "address"
				},
				{
					"internalType": "uint256",
					"name": "_nftTokenId",
					"type": "uint256"
				},
				{
					"internalType": "string",
					"name": "_erc20Name",
					"type": "string"
				},
				{
					"internalType": "string",
					"name": "_erc20Ticker",
					"type": "string"
				},
				{
					"internalType": "uint256",
					"name": "_erc20Amount",
					"type": "uint256"
				}
			],
			"name": "lockNft",
			"outputs": [],
			"stateMutability": "nonpayable",
			"type": "function"
		},
		{
			"inputs": [
				{
					"internalType": "uint256",
					"name": "",
					"type": "uint256"
				}
			],
			"name": "tokenContractArray",
			"outputs": [
				{
					"internalType": "contract TokenContract",
					"name": "",
					"type": "address"
				}
			],
			"stateMutability": "view",
			"type": "function"
		},
		{
			"inputs": [
				{
					"internalType": "address",
					"name": "_nftContractAddress",
					"type": "address"
				},
				{
					"internalType": "uint256",
					"name": "_nftTokenId",
					"type": "uint256"
				}
			],
			"name": "unlockNft",
			"outputs": [],
			"stateMutability": "nonpayable",
			"type": "function"
		},
		{
			"stateMutability": "payable",
			"type": "receive"
		}
	],
	"bytecode": "0x608060405234801561001057600080fd5b50612e61806100206000396000f3fe608060405260043610620000495760003560e01c80631940313714620002365780634c90a8cf146200027a578063c115061914620002a8578063ee7d4c3114620002ec5762000140565b36620001405760003373ffffffffffffffffffffffffffffffffffffffff1634604051620000779062000e07565b60006040518083038185875af1925050503d8060008114620000b6576040519150601f19603f3d011682016040523d82523d6000602084013e620000bb565b606091505b505090508062000102576040517f08c379a0000000000000000000000000000000000000000000000000000000008152600401620000f99062000f6f565b60405180910390fd5b7ff7f75251dee7d7fc22deac3247729ebe7c86541f35930bf10c2a4207479a3b6c33346040516200013592919062000fec565b60405180910390a150005b60003373ffffffffffffffffffffffffffffffffffffffff1634604051620001689062000e07565b60006040518083038185875af1925050503d8060008114620001a7576040519150601f19603f3d011682016040523d82523d6000602084013e620001ac565b606091505b5050905080620001f3576040517f08c379a0000000000000000000000000000000000000000000000000000000008152600401620001ea9062001043565b60405180910390fd5b7ff7f75251dee7d7fc22deac3247729ebe7c86541f35930bf10c2a4207479a3b6c33346000366040516200022b949392919062000f91565b60405180910390a150005b3480156200024357600080fd5b506200026260048036038101906200025c919062000bf7565b6200031a565b60405162000271919062000ed5565b60405180910390f35b3480156200028757600080fd5b50620002a66004803603810190620002a0919062000ad6565b6200035a565b005b348015620002b557600080fd5b50620002d46004803603810190620002ce919062000ad6565b62000701565b604051620002e3919062000e1e565b60405180910390f35b348015620002f957600080fd5b5062000318600480360381019062000312919062000b17565b6200077c565b005b600081815481106200032b57600080fd5b906000526020600020016000915054906101000a900473ffffffffffffffffffffffffffffffffffffffff1681565b60008290506000600260008573ffffffffffffffffffffffffffffffffffffffff1673ffffffffffffffffffffffffffffffffffffffff168152602001908152602001600020600084815260200190815260200160002060009054906101000a900473ffffffffffffffffffffffffffffffffffffffff16905060008190508073ffffffffffffffffffffffffffffffffffffffff166370a08231336040518263ffffffff1660e01b815260040162000414919062000e1e565b60206040518083038186803b1580156200042d57600080fd5b505afa15801562000442573d6000803e3d6000fd5b505050506040513d601f19601f8201168201806040525081019062000468919062000c23565b8173ffffffffffffffffffffffffffffffffffffffff166318160ddd6040518163ffffffff1660e01b815260040160206040518083038186803b158015620004af57600080fd5b505afa158015620004c4573d6000803e3d6000fd5b505050506040513d601f19601f82011682018060405250810190620004ea919062000c23565b146200052d576040517f08c379a0000000000000000000000000000000000000000000000000000000008152600401620005249062000f4d565b60405180910390fd5b8273ffffffffffffffffffffffffffffffffffffffff166323b872dd3033876040518463ffffffff1660e01b81526004016200056c9392919062000e3b565b600060405180830381600087803b1580156200058757600080fd5b505af11580156200059c573d6000803e3d6000fd5b505050508073ffffffffffffffffffffffffffffffffffffffff166323b872dd3361dead8473ffffffffffffffffffffffffffffffffffffffff166318160ddd6040518163ffffffff1660e01b815260040160206040518083038186803b1580156200060757600080fd5b505afa1580156200061c573d6000803e3d6000fd5b505050506040513d601f19601f8201168201806040525081019062000642919062000c23565b6040518463ffffffff1660e01b8152600401620006629392919062000e3b565b602060405180830381600087803b1580156200067d57600080fd5b505af115801562000692573d6000803e3d6000fd5b505050506040513d601f19601f82011682018060405250810190620006b8919062000bcb565b507fbcc3c6b7bb2ade9f70a24fdf63d7a1cd4cabde41b78d6f05942c4727237993d48585843342604051620006f295949392919062000e78565b60405180910390a15050505050565b6000600260008473ffffffffffffffffffffffffffffffffffffffff1673ffffffffffffffffffffffffffffffffffffffff168152602001908152602001600020600083815260200190815260200160002060009054906101000a900473ffffffffffffffffffffffffffffffffffffffff16905092915050565b60008590508073ffffffffffffffffffffffffffffffffffffffff166323b872dd3330886040518463ffffffff1660e01b8152600401620007c09392919062000e3b565b600060405180830381600087803b158015620007db57600080fd5b505af1158015620007f0573d6000803e3d6000fd5b5050505084600160003373ffffffffffffffffffffffffffffffffffffffff1673ffffffffffffffffffffffffffffffffffffffff16815260200190815260200160002060008373ffffffffffffffffffffffffffffffffffffffff1673ffffffffffffffffffffffffffffffffffffffff168152602001908152602001600020819055506000848484336040516200088990620009fa565b62000898949392919062000ef2565b604051809103906000f080158015620008b5573d6000803e3d6000fd5b5090506000819080600181540180825580915050600190039060005260206000200160009091909190916101000a81548173ffffffffffffffffffffffffffffffffffffffff021916908373ffffffffffffffffffffffffffffffffffffffff160217905550600081905080600260008a73ffffffffffffffffffffffffffffffffffffffff1673ffffffffffffffffffffffffffffffffffffffff168152602001908152602001600020600089815260200190815260200160002060006101000a81548173ffffffffffffffffffffffffffffffffffffffff021916908373ffffffffffffffffffffffffffffffffffffffff1602179055507fd8b6d176f67009bab72e96004004a730827b1cc7aeddcac5f381daf0b1949ae08888833342604051620009e895949392919062000e78565b60405180910390a15050505050505050565b611abe806200136e83390190565b600062000a1f62000a19846200108e565b62001065565b90508281526020810184848401111562000a3857600080fd5b62000a458482856200116e565b509392505050565b60008135905062000a5e816200131f565b92915050565b60008151905062000a758162001339565b92915050565b600082601f83011262000a8d57600080fd5b813562000a9f84826020860162000a08565b91505092915050565b60008135905062000ab98162001353565b92915050565b60008151905062000ad08162001353565b92915050565b6000806040838503121562000aea57600080fd5b600062000afa8582860162000a4d565b925050602062000b0d8582860162000aa8565b9150509250929050565b600080600080600060a0868803121562000b3057600080fd5b600062000b408882890162000a4d565b955050602062000b538882890162000aa8565b945050604086013567ffffffffffffffff81111562000b7157600080fd5b62000b7f8882890162000a7b565b935050606086013567ffffffffffffffff81111562000b9d57600080fd5b62000bab8882890162000a7b565b925050608062000bbe8882890162000aa8565b9150509295509295909350565b60006020828403121562000bde57600080fd5b600062000bee8482850162000a64565b91505092915050565b60006020828403121562000c0a57600080fd5b600062000c1a8482850162000aa8565b91505092915050565b60006020828403121562000c3657600080fd5b600062000c468482850162000abf565b91505092915050565b62000c5a81620010fc565b82525050565b600062000c6e8385620010cf565b935062000c7d8385846200116e565b62000c888362001218565b840190509392505050565b62000c9e8162001146565b82525050565b600062000cb182620010c4565b62000cbd8185620010eb565b935062000ccf8185602086016200117d565b62000cda8162001218565b840191505092915050565b600062000cf4602b83620010eb565b915062000d018262001229565b604082019050919050565b600062000d1b601483620010eb565b915062000d288262001278565b602082019050919050565b600062000d42600883620010eb565b915062000d4f82620012a1565b602082019050919050565b600062000d69600083620010cf565b915062000d7682620012ca565b600082019050919050565b600062000d90600083620010e0565b915062000d9d82620012ca565b600082019050919050565b600062000db7600783620010eb565b915062000dc482620012cd565b602082019050919050565b600062000dde601583620010eb565b915062000deb82620012f6565b602082019050919050565b62000e01816200113c565b82525050565b600062000e148262000d81565b9150819050919050565b600060208201905062000e35600083018462000c4f565b92915050565b600060608201905062000e52600083018662000c4f565b62000e61602083018562000c4f565b62000e70604083018462000df6565b949350505050565b600060a08201905062000e8f600083018862000c4f565b62000e9e602083018762000df6565b62000ead604083018662000c4f565b62000ebc606083018562000c4f565b62000ecb608083018462000df6565b9695505050505050565b600060208201905062000eec600083018462000c93565b92915050565b6000608082019050818103600083015262000f0e818762000ca4565b9050818103602083015262000f24818662000ca4565b905062000f35604083018562000df6565b62000f44606083018462000c4f565b95945050505050565b6000602082019050818103600083015262000f688162000ce5565b9050919050565b6000602082019050818103600083015262000f8a8162000d0c565b9050919050565b6000608082019050818103600083015262000fac8162000d33565b905062000fbd602083018762000c4f565b62000fcc604083018662000df6565b818103606083015262000fe181848662000c60565b905095945050505050565b60006080820190508181036000830152620010078162000da8565b905062001018602083018562000c4f565b62001027604083018462000df6565b81810360608301526200103a8162000d5a565b90509392505050565b600060208201905081810360008301526200105e8162000dcf565b9050919050565b60006200107162001084565b90506200107f8282620011b3565b919050565b6000604051905090565b600067ffffffffffffffff821115620010ac57620010ab620011e9565b5b620010b78262001218565b9050602081019050919050565b600081519050919050565b600082825260208201905092915050565b600081905092915050565b600082825260208201905092915050565b600062001109826200111c565b9050919050565b60008115159050919050565b600073ffffffffffffffffffffffffffffffffffffffff82169050919050565b6000819050919050565b600062001153826200115a565b9050919050565b600062001167826200111c565b9050919050565b82818337600083830152505050565b60005b838110156200119d57808201518184015260208101905062001180565b83811115620011ad576000848401525b50505050565b620011be8262001218565b810181811067ffffffffffffffff82111715620011e057620011df620011e9565b5b80604052505050565b7f4e487b7100000000000000000000000000000000000000000000000000000000600052604160045260246000fd5b6000601f19601f8301169050919050565b7f756e6c6f636b4e667428292c2043616c6c657220646f65736e277420686f6c6460008201527f20616c6c20746f6b656e73000000000000000000000000000000000000000000602082015250565b7f7265636569766528292c207478206661696c6564000000000000000000000000600082015250565b7f66616c6c6261636b000000000000000000000000000000000000000000000000600082015250565b50565b7f7265636569766500000000000000000000000000000000000000000000000000600082015250565b7f66616c6c6261636b28292c207478206661696c65640000000000000000000000600082015250565b6200132a81620010fc565b81146200133657600080fd5b50565b620013448162001110565b81146200135057600080fd5b50565b6200135e816200113c565b81146200136a57600080fd5b5056fe60806040523480156200001157600080fd5b5060405162001abe38038062001abe83398181016040528101906200003791906200035c565b83838160039080519060200190620000519291906200020c565b5080600490805190602001906200006a9291906200020c565b5050506200007f81836200008960201b60201c565b5050505062000719565b600073ffffffffffffffffffffffffffffffffffffffff168273ffffffffffffffffffffffffffffffffffffffff161415620000fc576040517f08c379a0000000000000000000000000000000000000000000000000000000008152600401620000f39062000432565b60405180910390fd5b62000110600083836200020260201b60201c565b8060026000828254620001249190620004e1565b92505081905550806000808473ffffffffffffffffffffffffffffffffffffffff1673ffffffffffffffffffffffffffffffffffffffff16815260200190815260200160002060008282546200017b9190620004e1565b925050819055508173ffffffffffffffffffffffffffffffffffffffff16600073ffffffffffffffffffffffffffffffffffffffff167fddf252ad1be2c89b69c2b068fc378daa952ba7f163c4a11628f55a4df523b3ef83604051620001e2919062000454565b60405180910390a3620001fe600083836200020760201b60201c565b5050565b505050565b505050565b8280546200021a90620005b2565b90600052602060002090601f0160209004810192826200023e57600085556200028a565b82601f106200025957805160ff19168380011785556200028a565b828001600101855582156200028a579182015b82811115620002895782518255916020019190600101906200026c565b5b5090506200029991906200029d565b5090565b5b80821115620002b85760008160009055506001016200029e565b5090565b6000620002d3620002cd846200049a565b62000471565b905082815260208101848484011115620002ec57600080fd5b620002f98482856200057c565b509392505050565b6000815190506200031281620006e5565b92915050565b600082601f8301126200032a57600080fd5b81516200033c848260208601620002bc565b91505092915050565b6000815190506200035681620006ff565b92915050565b600080600080608085870312156200037357600080fd5b600085015167ffffffffffffffff8111156200038e57600080fd5b6200039c8782880162000318565b945050602085015167ffffffffffffffff811115620003ba57600080fd5b620003c88782880162000318565b9350506040620003db8782880162000345565b9250506060620003ee8782880162000301565b91505092959194509250565b600062000409601f83620004d0565b91506200041682620006bc565b602082019050919050565b6200042c8162000572565b82525050565b600060208201905081810360008301526200044d81620003fa565b9050919050565b60006020820190506200046b600083018462000421565b92915050565b60006200047d62000490565b90506200048b8282620005e8565b919050565b6000604051905090565b600067ffffffffffffffff821115620004b857620004b76200067c565b5b620004c382620006ab565b9050602081019050919050565b600082825260208201905092915050565b6000620004ee8262000572565b9150620004fb8362000572565b9250827fffffffffffffffffffffffffffffffffffffffffffffffffffffffffffffffff038211156200053357620005326200061e565b5b828201905092915050565b60006200054b8262000552565b9050919050565b600073ffffffffffffffffffffffffffffffffffffffff82169050919050565b6000819050919050565b60005b838110156200059c5780820151818401526020810190506200057f565b83811115620005ac576000848401525b50505050565b60006002820490506001821680620005cb57607f821691505b60208210811415620005e257620005e16200064d565b5b50919050565b620005f382620006ab565b810181811067ffffffffffffffff821117156200061557620006146200067c565b5b80604052505050565b7f4e487b7100000000000000000000000000000000000000000000000000000000600052601160045260246000fd5b7f4e487b7100000000000000000000000000000000000000000000000000000000600052602260045260246000fd5b7f4e487b7100000000000000000000000000000000000000000000000000000000600052604160045260246000fd5b6000601f19601f8301169050919050565b7f45524332303a206d696e7420746f20746865207a65726f206164647265737300600082015250565b620006f0816200053e565b8114620006fc57600080fd5b50565b6200070a8162000572565b81146200071657600080fd5b50565b61139580620007296000396000f3fe608060405234801561001057600080fd5b50600436106100a95760003560e01c80633950935111610071578063395093511461016857806370a082311461019857806395d89b41146101c8578063a457c2d7146101e6578063a9059cbb14610216578063dd62ed3e14610246576100a9565b806306fdde03146100ae578063095ea7b3146100cc57806318160ddd146100fc57806323b872dd1461011a578063313ce5671461014a575b600080fd5b6100b6610276565b6040516100c39190610e35565b60405180910390f35b6100e660048036038101906100e19190610c83565b610308565b6040516100f39190610e1a565b60405180910390f35b610104610326565b6040516101119190610f37565b60405180910390f35b610134600480360381019061012f9190610c34565b610330565b6040516101419190610e1a565b60405180910390f35b610152610428565b60405161015f9190610f52565b60405180910390f35b610182600480360381019061017d9190610c83565b610431565b60405161018f9190610e1a565b60405180910390f35b6101b260048036038101906101ad9190610bcf565b6104dd565b6040516101bf9190610f37565b60405180910390f35b6101d0610525565b6040516101dd9190610e35565b60405180910390f35b61020060048036038101906101fb9190610c83565b6105b7565b60405161020d9190610e1a565b60405180910390f35b610230600480360381019061022b9190610c83565b6106a2565b60405161023d9190610e1a565b60405180910390f35b610260600480360381019061025b9190610bf8565b6106c0565b60405161026d9190610f37565b60405180910390f35b60606003805461028590611067565b80601f01602080910402602001604051908101604052809291908181526020018280546102b190611067565b80156102fe5780601f106102d3576101008083540402835291602001916102fe565b820191906000526020600020905b8154815290600101906020018083116102e157829003601f168201915b5050505050905090565b600061031c610315610747565b848461074f565b6001905092915050565b6000600254905090565b600061033d84848461091a565b6000600160008673ffffffffffffffffffffffffffffffffffffffff1673ffffffffffffffffffffffffffffffffffffffff1681526020019081526020016000206000610388610747565b73ffffffffffffffffffffffffffffffffffffffff1673ffffffffffffffffffffffffffffffffffffffff16815260200190815260200160002054905082811015610408576040517f08c379a00000000000000000000000000000000000000000000000000000000081526004016103ff90610eb7565b60405180910390fd5b61041c85610414610747565b85840361074f565b60019150509392505050565b60006012905090565b60006104d361043e610747565b84846001600061044c610747565b73ffffffffffffffffffffffffffffffffffffffff1673ffffffffffffffffffffffffffffffffffffffff16815260200190815260200160002060008873ffffffffffffffffffffffffffffffffffffffff1673ffffffffffffffffffffffffffffffffffffffff168152602001908152602001600020546104ce9190610f89565b61074f565b6001905092915050565b60008060008373ffffffffffffffffffffffffffffffffffffffff1673ffffffffffffffffffffffffffffffffffffffff168152602001908152602001600020549050919050565b60606004805461053490611067565b80601f016020809104026020016040519081016040528092919081815260200182805461056090611067565b80156105ad5780601f10610582576101008083540402835291602001916105ad565b820191906000526020600020905b81548152906001019060200180831161059057829003601f168201915b5050505050905090565b600080600160006105c6610747565b73ffffffffffffffffffffffffffffffffffffffff1673ffffffffffffffffffffffffffffffffffffffff16815260200190815260200160002060008573ffffffffffffffffffffffffffffffffffffffff1673ffffffffffffffffffffffffffffffffffffffff16815260200190815260200160002054905082811015610683576040517f08c379a000000000000000000000000000000000000000000000000000000000815260040161067a90610f17565b60405180910390fd5b61069761068e610747565b8585840361074f565b600191505092915050565b60006106b66106af610747565b848461091a565b6001905092915050565b6000600160008473ffffffffffffffffffffffffffffffffffffffff1673ffffffffffffffffffffffffffffffffffffffff16815260200190815260200160002060008373ffffffffffffffffffffffffffffffffffffffff1673ffffffffffffffffffffffffffffffffffffffff16815260200190815260200160002054905092915050565b600033905090565b600073ffffffffffffffffffffffffffffffffffffffff168373ffffffffffffffffffffffffffffffffffffffff1614156107bf576040517f08c379a00000000000000000000000000000000000000000000000000000000081526004016107b690610ef7565b60405180910390fd5b600073ffffffffffffffffffffffffffffffffffffffff168273ffffffffffffffffffffffffffffffffffffffff16141561082f576040517f08c379a000000000000000000000000000000000000000000000000000000000815260040161082690610e77565b60405180910390fd5b80600160008573ffffffffffffffffffffffffffffffffffffffff1673ffffffffffffffffffffffffffffffffffffffff16815260200190815260200160002060008473ffffffffffffffffffffffffffffffffffffffff1673ffffffffffffffffffffffffffffffffffffffff168152602001908152602001600020819055508173ffffffffffffffffffffffffffffffffffffffff168373ffffffffffffffffffffffffffffffffffffffff167f8c5be1e5ebec7d5bd14f71427d1e84f3dd0314c0f7b2291e5b200ac8c7c3b9258360405161090d9190610f37565b60405180910390a3505050565b600073ffffffffffffffffffffffffffffffffffffffff168373ffffffffffffffffffffffffffffffffffffffff16141561098a576040517f08c379a000000000000000000000000000000000000000000000000000000000815260040161098190610ed7565b60405180910390fd5b600073ffffffffffffffffffffffffffffffffffffffff168273ffffffffffffffffffffffffffffffffffffffff1614156109fa576040517f08c379a00000000000000000000000000000000000000000000000000000000081526004016109f190610e57565b60405180910390fd5b610a05838383610b9b565b60008060008573ffffffffffffffffffffffffffffffffffffffff1673ffffffffffffffffffffffffffffffffffffffff16815260200190815260200160002054905081811015610a8b576040517f08c379a0000000000000000000000000000000000000000000000000000000008152600401610a8290610e97565b60405180910390fd5b8181036000808673ffffffffffffffffffffffffffffffffffffffff1673ffffffffffffffffffffffffffffffffffffffff16815260200190815260200160002081905550816000808573ffffffffffffffffffffffffffffffffffffffff1673ffffffffffffffffffffffffffffffffffffffff1681526020019081526020016000206000828254610b1e9190610f89565b925050819055508273ffffffffffffffffffffffffffffffffffffffff168473ffffffffffffffffffffffffffffffffffffffff167fddf252ad1be2c89b69c2b068fc378daa952ba7f163c4a11628f55a4df523b3ef84604051610b829190610f37565b60405180910390a3610b95848484610ba0565b50505050565b505050565b505050565b600081359050610bb481611331565b92915050565b600081359050610bc981611348565b92915050565b600060208284031215610be157600080fd5b6000610bef84828501610ba5565b91505092915050565b60008060408385031215610c0b57600080fd5b6000610c1985828601610ba5565b9250506020610c2a85828601610ba5565b9150509250929050565b600080600060608486031215610c4957600080fd5b6000610c5786828701610ba5565b9350506020610c6886828701610ba5565b9250506040610c7986828701610bba565b9150509250925092565b60008060408385031215610c9657600080fd5b6000610ca485828601610ba5565b9250506020610cb585828601610bba565b9150509250929050565b610cc881610ff1565b82525050565b6000610cd982610f6d565b610ce38185610f78565b9350610cf3818560208601611034565b610cfc816110f7565b840191505092915050565b6000610d14602383610f78565b9150610d1f82611108565b604082019050919050565b6000610d37602283610f78565b9150610d4282611157565b604082019050919050565b6000610d5a602683610f78565b9150610d65826111a6565b604082019050919050565b6000610d7d602883610f78565b9150610d88826111f5565b604082019050919050565b6000610da0602583610f78565b9150610dab82611244565b604082019050919050565b6000610dc3602483610f78565b9150610dce82611293565b604082019050919050565b6000610de6602583610f78565b9150610df1826112e2565b604082019050919050565b610e058161101d565b82525050565b610e1481611027565b82525050565b6000602082019050610e2f6000830184610cbf565b92915050565b60006020820190508181036000830152610e4f8184610cce565b905092915050565b60006020820190508181036000830152610e7081610d07565b9050919050565b60006020820190508181036000830152610e9081610d2a565b9050919050565b60006020820190508181036000830152610eb081610d4d565b9050919050565b60006020820190508181036000830152610ed081610d70565b9050919050565b60006020820190508181036000830152610ef081610d93565b9050919050565b60006020820190508181036000830152610f1081610db6565b9050919050565b60006020820190508181036000830152610f3081610dd9565b9050919050565b6000602082019050610f4c6000830184610dfc565b92915050565b6000602082019050610f676000830184610e0b565b92915050565b600081519050919050565b600082825260208201905092915050565b6000610f948261101d565b9150610f9f8361101d565b9250827fffffffffffffffffffffffffffffffffffffffffffffffffffffffffffffffff03821115610fd457610fd3611099565b5b828201905092915050565b6000610fea82610ffd565b9050919050565b60008115159050919050565b600073ffffffffffffffffffffffffffffffffffffffff82169050919050565b6000819050919050565b600060ff82169050919050565b60005b83811015611052578082015181840152602081019050611037565b83811115611061576000848401525b50505050565b6000600282049050600182168061107f57607f821691505b60208210811415611093576110926110c8565b5b50919050565b7f4e487b7100000000000000000000000000000000000000000000000000000000600052601160045260246000fd5b7f4e487b7100000000000000000000000000000000000000000000000000000000600052602260045260246000fd5b6000601f19601f8301169050919050565b7f45524332303a207472616e7366657220746f20746865207a65726f206164647260008201527f6573730000000000000000000000000000000000000000000000000000000000602082015250565b7f45524332303a20617070726f766520746f20746865207a65726f20616464726560008201527f7373000000000000000000000000000000000000000000000000000000000000602082015250565b7f45524332303a207472616e7366657220616d6f756e742065786365656473206260008201527f616c616e63650000000000000000000000000000000000000000000000000000602082015250565b7f45524332303a207472616e7366657220616d6f756e742065786365656473206160008201527f6c6c6f77616e6365000000000000000000000000000000000000000000000000602082015250565b7f45524332303a207472616e736665722066726f6d20746865207a65726f20616460008201527f6472657373000000000000000000000000000000000000000000000000000000602082015250565b7f45524332303a20617070726f76652066726f6d20746865207a65726f2061646460008201527f7265737300000000000000000000000000000000000000000000000000000000602082015250565b7f45524332303a2064656372656173656420616c6c6f77616e63652062656c6f7760008201527f207a65726f000000000000000000000000000000000000000000000000000000602082015250565b61133a81610fdf565b811461134557600080fd5b50565b6113518161101d565b811461135c57600080fd5b5056fea2646970667358221220b689591829a519824a45f9768e548c1bdccddec2ec9418b8cb263bc899b45bf164736f6c63430008040033a2646970667358221220590a5688a9301ae6dc2d951175ee846d70e6d44b9ad113becd75a76b06e24fc764736f6c63430008040033",
	"linkReferences": {},
	"deployedLinkReferences": {}
}